:020000040800F2
:1000000010970A206D030008A55C00086D3F0008EA
:10001000A15C000829130008316400087F03000870
:1000200000000000000000000000000075600008F3
:100030002D13000800000000A95C0008796000088A
:100040008903000889030008890300088903000860
:100050008903000889030008890300088903000850
:100060008903000889030008890300088903000840
:100070008903000889030008890300088903000830
:100080008903000889030008890300088903000820
:100090008903000889030008890300088903000810
:1000A0008903000889030008890300088903000800
:1000B00089030008311300083D1300088903000874
:1000C00089030008890300088903000889030008E0
:1000D00089030008890300088903000889030008D0
:1000E00089030008890300088903000889030008C0
:1000F0008903000889030008D56000088903000807
:10010000890300088903000889030008890300089F
:10011000890300088903000889030008890300088F
:10012000890300088903000889030008890300087F
:10013000890300088903000889030008890300086F
:10014000890300088903000889030008890300085F
:10015000890300088903000889030008890300084F
:10016000890300088903000889030008890300083F
:10017000890300088903000889030008890300082F
:10018000890300088903000889030008890300081F
:10019000890300088903000889030008890300080F
:1001A00089030008890300088903000889030008FF
:1001B00089030008890300088903000889030008EF
:1001C00089030008890300088903000889030008DF
:1001D00089030008890300088903000889030008CF
:1001E00089030008890300088903000889030008BF
:1001F00089030008890300088903000889030008AF
:10020000890300088903000889030008890300089E
:10021000890300088903000889030008890300088E
:10022000890300088903000889030008890300087E
:10023000890300088903000800F002F800F086F83E
:1002400014A696E8000CB244B344DA4501D100F09C
:100250007DF8BAE80F000FA696E83000A5EB04057C
:1002600004EB0607AAEB0704A7F101074FEA1515EF
:100270004FEA3414A4F10104AC4201D300F066F853
:1002800013F0010F18BFFB1A43F0010300F001F84F
:10029000DBE71847E8FF0A0008000B000A4410F8E3
:1002A000013B13F0030408BF10F8014B1D1108BFF8
:1002B00010F8015B641E05D010F8016B641E01F894
:1002C000016BF9D1002D15D010F8014B03F00C0390
:1002D0000C2BA1EB04040ABF10F8013BA4EB831420
:1002E000A4EB032405F1010314F8016B5B1E01F874
:1002F000016BF9D5914238BF10F8013BD1D370475B
:10030000704700000023002400250026103A28BF73
:1003100078C1FBD8520728BF30C148BF0B60704777
:10032000782900F0F980732900F0CD820020704711
:100330001FB511F0CDFF9DE8030000F019FA00F0A1
:100340005DFC1FBD10B500F0C2FC10BD00F0F9FC53
:100350001146FFF7EDFF0CF0D3FC00F05DFE03B497
:10036000FFF7F0FF03BC08F043FA00000A4880479B
:100370000A480047FEE7FEE7FEE7FEE7FEE7FEE786
:10038000FEE7FEE7FEE7FEE7FEE70000044805495A
:10039000054A064B704700008960000839020008D2
:1003A0001097062010970A20109708201097082011
:1003B000704770B5064600F0BFF9056806F10B00FE
:1003C00020F00704B4429CBF002070BD2B466A6831
:1003D000BAB11068A04210D304F1080188423CBFB2
:1003E0005068586007D35168101941601168091BA3
:1003F000016058601460101D70BD13465268002AD9
:10040000E7D12146284600F09FF90028DED170BDD3
:1004100070B50446051F00F08FF90068002C14BF6A
:10042000446870BD002C18BFAC423CBF20466468D5
:10043000F8D301680A18AA4218BF456003D12A6898
:1004400005461144016028684119A1421CBF6C6037
:1004500070BD6168696021680844286070BD000053
:100460000FB4044910B503AA029800F031FA10BC89
:100470005DF814FBD475002070B5044685690068EA
:10048000C10601D5302600E02026C00707D070BD88
:10049000D4E9012130469047206A401C20626D1E3D
:1004A000F6D570BD70B5044685690078C00707D1E0
:1004B00070BDD4E9012120209047206A401C2062B1
:1004C0006D1EF6D570BD70B50C460546012A05D0E7
:1004D0002878800600D5EA69002302E0012305E0C0
:1004E0005B1C934202D2E05C0028F9D1A869E618AF
:1004F000C01AA861286A184428622846FFF7BCFF82
:1005000004E0D5E9012114F8010B9047B442F8D377
:100510002846FFF7C7FF70BD70B504460D4621465B
:100520001068AFF300802188090502D50F4A7A448C
:1005300002E00E4A7A440E32002104F1240305E061
:1005400000F00F060009965D5E54491C0028F7D1A3
:1005500020780023000704D5702D02D009B10223B2
:1005600011322046BDE8704000F042B9981E0100EB
:100570002DE9F05F894604464FF0000ADFF824B108
:10058000FB44C0F820A02046E168884700287DD0C1
:10059000252806D0D4E901219047206A401C20621A
:1005A000F1E700255F462046E16888472028064697
:1005B00007DB312E05D2B81910F8200C08B105431D
:1005C000F1E7A80701D525F00405C4F81CA0002711
:1005D000C4F818A02A2E09D0304611F0D1FA38B349
:1005E00004EB8708303EC8F8186019E059F8041B7E
:1005F000204604EB87029161E1688847012F064697
:1006000018D1E069002820DA25F020051DE0D8F88F
:10061000180000EB800006EB40003038C8F81800E6
:100620002046E1688847064611F0AAFA0028EED174
:10063000012F0AD02E2E08D12046E16888477F1C62
:100640000646022F45F02005C4DBA069002803DA26
:10065000404245F00105A061E80701D025F01005F2
:10066000A6B1A6F14100192802D8203645F400654C
:100670004A463146204625604D46FFF751FE60B19F
:10068000012807D0ED1D25F0070000E007E000F18C
:10069000080978E705F1040975E730467AE7206A2A
:1006A000BDE8F09F6E1E010010B5044603E011F096
:1006B0006EFA401C09D014F8010B05490028F6D148
:1006C000BDE810400A2011F062BA4FF0FF3010BDB3
:1006D000D475002002F0FF0343EA032242EA0242FB
:1006E00000F03CB94FF0000200B513469446964620
:1006F000203922BFA0E80C50A0E80C50B1F1200135
:10070000BFF4F7AF090728BFA0E80C5048BF0CC0E2
:100710005DF804EB890028BF40F8042B08BF704740
:1007200048BF20F8022B11F0804F18BF00F8012BB2
:1007300070477047704770470048704784760020C4
:10074000704770477047704738B504460A46002026
:100750006946AFF30080002808BF38BD0246009903
:10076000204600F023F9012038BD012000F0E2BA54
:10077000F8B5AFF30080054600200C460C2000BF02
:100780000646A819A0420DD9324669460020AFF3AB
:100790000080070008BF00F0CDFA0098A04218BF03
:1007A0000546C419FFF7C8FF05600746F01D20F095
:1007B00007004619284600F00AF8B44208BFF8BD01
:1007C000A21B31463868BDE8F84000F0EFB80021C0
:1007D0000160416070470C20704710B500F0E2F8EE
:1007E000006810BD10B5044600F0DCF8046010BDD0
:1007F0002DE9F0470D4699469246044600F124083B
:100800000168880604D5E06921F01001216000E04C
:100810000120A84201DD471B00E00027A1697A19E9
:1008200002EB0900081AA0612078C00602D4204615
:10083000FFF722FE002608E0D4E901211AF806009D
:100840009047206A401C761C20624E45F4DB2078DD
:10085000C0060AD52046FFF70FFE06E0D4E90121C5
:1008600030209047206A401C2062381EA7F1010703
:10087000F4DC07E0D4E9012118F805009047206A6C
:10088000401C2062281EA5F10105F3DC2046FFF77D
:1008900009FE2078000602D50220BDE8F08701207D
:1008A000FBE710B5436913B1AFF3008001E0FFF738
:1008B0000AFE012010BD127800F124010A70002206
:1008C0004A700122EDE711684FF0FF32E9E70000BE
:1008D000074B70B50D467B4400F087F80446284668
:1008E00000F096F810B14FF0FF3070BD204670BD9B
:1008F000B512010010B5203AC0F00B80B1E81850D5
:10090000A0E81850B1E81850A0E81850203ABFF4F9
:10091000F5AF5FEA027C24BFB1E81850A0E8185098
:1009200044BF18C918C0BDE810405FEA827C24BFEC
:1009300051F8043B40F8043B08BF7047D20728BF7A
:1009400031F8023B48BF11F8012B28BF20F8023BC9
:1009500048BF00F8012B70474FF000020429C0F097
:10096000128010F0030C3FF4BFAECCF1040CBCF1CC
:10097000020F18BF00F8012BA8BF20F8022BA1EB33
:100980000C01FFF7B1BE5FEAC17C24BF00F8012B68
:1009900000F8012B48BF00F8012B70470048704752
:1009A0007C760020004870477C7600200346406833
:1009B0008C46002818BF88423CBF03464068F8D3E5
:1009C00018681844884207D00CF1030020F0070093
:1009D000001D411A521A0146081D0A60FFF718BD92
:1009E00001694A1C02610878704700B58FB0CDE9F3
:1009F00001310021059105497944CDE903101146E3
:100A00006846FFF7B5FD0FB000BD0000E5FFFFFF32
:100A1000007B00F0800070472DE9F05F0546174627
:100A20000C46C86820F4201040F48000C86080069E
:100A300002D5084600F031FAE06841F282014FF039
:100A4000FF3A0140022903D0204600F0C3F9B9E083
:100A500000F42041B1F5004F0FD1C00306D5616805
:100A6000E06A884200D80846606006E02069E062DB
:100A700060606069002000BFA061A0680022EEB243
:100A800000280DDAE1688B050AD4C043A06041F468
:100A900090302260E0606068411C61600670AAE0EE
:100AA000E0689146226040F40050E060206978BB25
:100AB0006069012000BF04F124054FF00108A8B1CE
:100AC000A08910F4407F08D0E069FFF772FC206134
:100AD00018B1E06840F4006017E0C4F81C8025619C
:100AE000E06820F4407040F480600EE0E069FFF7B9
:100AF00060FC00282061F0D0E06840F4006010F451
:100B0000407FE06002D140F48070E0602069606066
:100B1000E06825696FF0010BC1051ED56168E06AC8
:100B2000884200D80846411B04D02246284600F0DF
:100B30005BF9E8BB1FB1E562C4E9015959E0681CE3
:100B4000E0626060E069401EA060E06840F48030D0
:100B5000E06030462E70BDE8F09F17B100F480329F
:100B60000AE06068411C61600670E0680A2E40F48B
:100B70008030E06006D00022E16A6068814203D9DB
:100B80000B4602E00122F7E70346B4F80CC05B1BFA
:100B90005FEA4C5C04D4D4F81CC09C4500DD02B371
:100BA000814200D80146002BA1EB0008E56200E07D
:100BB00008E0C4E9015907DD22461946284600F03D
:100BC00013F908B15046C6E7B8F1000F09D0A16982
:100BD000E5626560A1EB0800A061E06840F01000EC
:100BE000E06047B16168A069E562491B084465603F
:100BF000A0615846AFE73046ADE7000010B5424867
:100C00005421FFF76FFD41485421FFF76BFD404829
:100C10005421FFF767FD3F493B483C4A3F4B086082
:100C20003D490A603A491960531C0365481C106528
:100C3000012008653B48344A39A1784400F04EF958
:100C400020B9384878440A3800F0F4F937482F4A78
:100C500035A1784400F042F920B9344878440A3884
:100C600000F0E8F932482A4A2FA1784400F036F91A
:100C700020B92F4878440A3800F0DCF94023224894
:100C8000DC000021224600F081F820B1254878449C
:100C9000543800F0CFF91D4822464023002100F0CF
:100CA00075F820B121487844543800F0C3F9184849
:100CB00022461023002100F069F8002806D01C48C5
:100CC0007844BDE81040563800F0B4B910BD104863
:100CD00070B5006D20F001040B4800F077F90B4867
:100CE00000F074F90A4800F071F909E0206D20F075
:100CF0000105204600F06AF92046FFF789FB2C46E3
:100D0000002CF3D170BD000080750020D475002048
:100D100028760020000000200400002008000020A9
:100D2000720000002D2F0100770000001B2F010032
:100D3000F62E010010B500F085F9BDE8104000F076
:100D400074B97546FFF72AFEAE460500694653465C
:100D500020F00700854618B020B5FFF717FBBDE867
:100D600020404FF000064FF000074FF000084FF012
:100D7000000BAC46ACE8C009ACE8C009ACE8C0095F
:100D8000ACE8C00921F007018D46704770B5C46812
:100D9000A50713D0650211D4B2F5807F09D0B2F552
:100DA000007F06D0B2F5806F08D1012300F1240145
:100DB00006E05D1E6FF07F46B54201D3012070BD95
:100DC0000161C361416024F470611143C16000207E
:100DD00070BD0000C16821F4001141F08001C160C4
:100DE00000218160016070472DE9F74F15460C46E0
:100DF0004FF0FF3B3848D768D2F814A0074209D01B
:100E00005046A9694FF0FF30002819DB3248C04333
:100E10000740EF604FF000496FF000484C4501D3A8
:100E2000464600E0264600993B46504632460020A2
:100E300000BFA96920F00042B21A1144A96128B18B
:100E40002846FFF7C7FF5846BDE8FE8FA41BE5D133
:100E50000020F9E770B504460569C06A61688842F8
:100E600000D80846E16821F42011E160C90312D5D9
:100E7000A84208D02246411B2846FFF7B5FF10B113
:100E80004FF0FF3070BD0020E562C4E90150E0681A
:100E900020F48030E060002070BD10B50446C068CA
:100EA00020F02000E060A16AA06988420DD02046B1
:100EB000FFF7D0FFE06820F4405040F01000E06001
:100EC000A06AA0612069E062606044F24001E068CD
:100ED0008843E06010BD0000100002002DE9F041E1
:100EE0000C461646070047D0104600F06FF82078F1
:100EF000611C61280AD0722802D077283CD102E018
:100F00000125002405E00225042402E0082448F21B
:100F1000020511F8010B2B2806D0622809D011F820
:100F2000010C74280AD00BE045F0030544F00204DC
:100F3000EFE745F0040544F00104EAE744F010044B
:100F4000384621464FF48070411C15D00021316194
:100F500071604FF40071F560F1617061200704D594
:100F600030460222002100F095F8306D40F001007B
:100F700030653046BDE8F0810020FBE72DE9F04107
:100F80000D460646104C206DC10704D0410804D020
:100F900020F00104F7E722460EE05420FFF709FA9B
:100FA00007000ED0206D47F0010108435421206551
:100FB0003846FFF797FB3A4629463046BDE8F041F0
:100FC0008CE70020D6E70000807500202DE9F0476F
:100FD00004464FF0FF380026C568D4E90497A807F7
:100FE00018D02046FFF736FF3846002000BF002803
:100FF00000DA4646280502D54846FFF709FA4C2193
:101000002046FFF76FFB206D20F001002065304681
:10101000BDE8F0874046FBE710B50446AFF300801B
:101020002046BDE81040FFF79AB9002801D007F02C
:10103000DFBB704710B500F0C3F8BDE81040FFF704
:10104000F4BF000010B5012805D0002103A000F076
:101050009DF8012010BD09A1F8E70000534947524F
:10106000544D454D3A204F7574206F662068656178
:1010700070206D656D6F7279000000003A20486540
:101080006170206D656D6F727920636F727275701B
:10109000746564002DE9F041044616460D46476923
:1010A000007B80072ED03846012000BF50BB3EB3E6
:1010B000012E02D0022E25D104E0204600F09AF83D
:1010C00005441DE03846002000BFE168002841F0DB
:1010D0001001E16005DA2046FFF77CFE0120BDE843
:1010E000F081C9030BD56268E16A914200D81146CC
:1010F000A26911442269891A814200DD084605442B
:10110000002D01DA0220EAE7E16A6068E2688142C4
:1011100006D29103E06203D522F4003141F01002BF
:10112000A6690027AE4213DCE16A814201D90B4671
:1011300000E0034603EB060C2369ACEB030CAC4563
:1011400006DD814201D98C4600E084469C4505D1EC
:10115000A760276042F02000A5620DE0AD1BE669A4
:10116000AE1B8142A66000D90846C01A281A20602A
:101170005819606022F0200003490840E060002018
:1011800084F84870ABE70000BFCFD7FF70B50546C5
:101190000C460A2000E06D1C07F02CFB35B12878C6
:1011A0000028F8D102E0641C07F024FB14B1207879
:1011B0000028F8D1BDE870400A2007F01BBB0000F2
:1011C00010B5014602A0FFF7E1FF012010BD0000AD
:1011D00053494752545245443A20526564697265F6
:1011E00063743A2063616E2774206F70656E3A20D5
:1011F0000000000010B50146C268900703D09006B9
:1012000007D5886A0AE0FFF7CDFB01210160881E3F
:1012100010BD8B69486818440B69C01A91F84830B2
:101220001BB191F84910401A10BD1103FCD50028DC
:10123000FADD401E10BD53EA020C00F069802DE972
:10124000F04B4FF00006002B1FBFB3FA83F503FAF3
:1012500005F424FA05F65E4012BF1643B2FA82F591
:1012600002FA05F4C5F120051EBF22FA05FC44EA86
:101270000C04203556EA044C4FEA144418BF641C91
:101280004FF000084FF00009904271EB030C39D386
:10129000002919BFB1FA81F701FA07F6B0FA80F711
:1012A00000FA07F6C7F120071EBF20FA07FC46EA3E
:1012B0000C062037B6FBF4FCA7EB0507103F07F040
:1012C0001F0BCBF120062CFA06F60CFA0BFB44BFE1
:1012D000B3460026202FA4BF5E464FF0000B5BEA0A
:1012E000060C08BF4FF0010B19EB0B0948EB060881
:1012F000ABFB027C06FB02CC0BFB03CCC01B71EBEF
:101300000C01C1E70B46024641464846BDE8F08B5A
:1013100013B5084318BF4FF0FF300146AFF300800C
:10132000BDE81C4070470000FEE700007047000069
:1013300047F6A400C2F2000000F006B847F61C1001
:10134000C2F20000AFF3008010B504680C23214600
:1013500004F57B6263F30B01C2F3C4120968D14048
:10136000C9074AD02169490544BF61695FEA415113
:1013700044D42169090544BF61695FEA015145D43C
:101380002169C90444BF61695FEAC14146D421694A
:10139000490444BF61695FEA414147D42169890535
:1013A00044BF61695FEA815148D42169890444BF1F
:1013B00061695FEA81414CD42169C90544BF616913
:1013C0005FEAC15161D4816DB9B101684A6942F0E7
:1013D00002024A61012180F8541090F85020120650
:1013E00044BF426F1173816E0022002980F84C20A7
:1013F00008BF10BDBDE81040084710BD4FF4806124
:10140000E160816D41F001018165B2E74FF4006157
:10141000E160816D41F002018165B1E74FF48051D7
:10142000E160816D41F004018165B0E74FF48041D6
:10143000E160816D41F008018165AFE74FF4007113
:10144000E160426E002AB0D00446904720462468EE
:10145000ABE74FF40051E16090F8541004291DD11E
:101460006169012221F400516161616941F0020169
:10147000616180F8542090F85010090603D5416F3F
:101480000A730021A164C16EAEE790F850100906FE
:1014900010D4A16CD1B900F1540215E0052180F8F7
:1014A0005410026F002A3FF487AF0446904720464D
:1014B000246881E7E16F49B9A16C39B9012180F84D
:1014C0005410416F01F10C02012111704FF4407171
:1014D000E160016E0022002980F84C203FF473AFD8
:1014E0000446884720466EE72DE9F04F83B00E682A
:1014F0000290002E00F01881DDF808E040F20009AB
:101500000EF12000019047F67F70C0F22F0000EA34
:101510009E2000234FF0010A4FF0030BC4F2026932
:1015200000900BE04FF0030B40F20009C4F2026997
:101530000E68013336FA03F200F0F6800AFA03F57A
:1015400016EA050CF4D0029A4A4527D0D1F8048057
:1015500048F01004122C5BD16FF0030000EA530432
:101560001C2000EA830501980F22065902FA05F7AC
:101570000A69BE4302F00F02AA4032430251DEF86C
:1015800000205C00D1F804800BFA04F5AA4308F0AF
:10159000030505FA04F4224345E000BFD9F8000032
:1015A0004E68A84306F0010543F68C229D40C0F624
:1015B0000102284302EBC305C9F80000D5F80490E6
:1015C0006FF0030052F833E000EA59051C2075441F
:1015D00000EA89062F6A0F2000FA06F40B2027EA9A
:1015E000040400FA06F634432C62DEF800404FEAA9
:1015F00049050BFA05F60220B44300FA05F52C4321
:10160000CEF80040D1F80480B8F1120F11D93CE0B7
:10161000DEF800205C000BFA04F5AA4308F003058D
:1016200005FA04F422439946CEF80020B8F1120FCF
:101630002BD80AFA08F212F0061F22D0DEF8082092
:101640004FEA49060320CC6800FA06FB22EA0B02A7
:10165000B4402243CEF80820DEF804200AFA09F448
:10166000A2434FEA181404FA09F42243B8F1030F15
:10167000CEF804203FF456AF6FEA0B054FF0030B92
:1016800008E0B8F1030F3FF44FAF4FEA49060BFAF9
:1016900006F2D543DEF80C208C6840F200092A409F
:1016A000B440C4F2026922435FEAC804CEF80C20B9
:1016B0007FF53EAF42F20007182023F00302C4F288
:1016C000026700EAC3043A440F20156E00FA04F6DC
:1016D0000098B54300FA04F42C4314663A684C6849
:1016E00042EA0C05E60258BF22EA0C053D607A6822
:1016F000A60242EA0C0558BF22EA0C057D60D7F825
:101700008420A60342EA0C0558BF22EA0C05C7F85C
:101710008450D7F88020E40342EA0C0558BF22EA3F
:101720000C05C7F8805003E703B0BDE8F08F000058
:10173000B0B540F6284EC4F2026EDEF80C50DEF86A
:101740000030DEF80010DEF80020DEF81040D2068F
:10175000E40804EAE272C1F303216FF35F3200EEA2
:10176000102A03F00303B8EE400A6FF35F25012B44
:1017700001F1010C1ED0032B18BF022B1AD101EE70
:1017800010CADEF80C10B8EE411A9FED462A6FF32E
:101790005F2182EE011A02EE101A9FED433AB8EE75
:1017A000422A20EE030A30EE020AB7EE002A30EE9B
:1017B000022A28E05EF8201C090203D4DEF8CC10CF
:1017C0000B0401E05EF8203C43F60C32190FC0F622
:1017D000010202EB810102EE10CA91ED001AB8EE8F
:1017E000422AB8EE411A9FED303A81EE022A01EE0C
:1017F000105A20EE030AB8EE411A30EE010AB7EE95
:10180000001A30EE011ADEF8001021EE020AC903B8
:1018100001D4002211E0DEF80C10B7EE002AC1F36B
:10182000462101EE101AB8EE411A31EE021A80EE8E
:10183000011ABCEEC11A11EE102A0260DEF8001087
:10184000890301D4002211E0DEF80C10B7EE002A63
:10185000C1F3064101EE101AB8EE411A31EE021A38
:1018600080EE011ABCEEC11A11EE102A4260DEF8B9
:101870000010490302D400218160B0BDDEF80C10D5
:10188000B7EE002AC1F3066101EE101AB8EE411A54
:1018900031EE021A80EE010ABCEEC00A10EE101AF8
:1018A0008160B0BD0024744B00000039B0B540F633
:1018B0002C4EC4F2026EDEF81050DEF80030DEF876
:1018C0000010DEF80020DEF81440D206E40804EA36
:1018D000E272C1F303216FF35F3200EE102A03F0CE
:1018E0000303B8EE400A6FF35F25012B01F1010CF1
:1018F0001ED0032B18BF022B1AD101EE10CADEF83E
:101900001010B8EE411A9FED462A6FF35F2182EE68
:10191000011A02EE101A9FED433AB8EE422A20EE69
:10192000030A30EE020AB7EE002A30EE022A28E05F
:101930005EF8241C090203D4DEF8C8100B0401E091
:101940005EF8243C43F60C32190FC0F6010202EB9C
:10195000810102EE10CA91ED001AB8EE422AB8EEEB
:10196000411A9FED303A81EE022A01EE105A20EE24
:10197000030AB8EE411A30EE010AB7EE001A30EE53
:10198000011ADEF8001021EE020AC90301D4002278
:1019900011E0DEF81010B7EE002AC1F3462101EE87
:1019A000101AB8EE411A31EE021A80EE011ABCEE9E
:1019B000C11A11EE102A0260DEF80010890301D46A
:1019C000002211E0DEF81010B7EE002AC1F3064144
:1019D00001EE101AB8EE411A31EE021A80EE011A29
:1019E000BCEEC11A11EE102A4260DEF80010490365
:1019F00002D400218160B0BDDEF81010B7EE002ADD
:101A0000C1F3066101EE101AB8EE411A31EE021A66
:101A100080EE010ABCEEC00A10EE101A8160B0BD63
:101A20000024744B00000039B0B540F6304EC4F2CB
:101A3000026EDEF81450DEF80030DEF80010DEF83A
:101A40000020DEF81840D206E40804EAE272C1F38E
:101A500003216FF35F3200EE102A03F00303B8EEA8
:101A6000400A6FF35F25012B01F1010C1ED0032BFF
:101A700018BF022B1AD101EE10CADEF81410B8EE0E
:101A8000411A9FED462A6FF35F2182EE011A02EEA2
:101A9000101A9FED433AB8EE422A20EE030A30EEC8
:101AA000020AB7EE002A30EE022A28E05EF8281C6F
:101AB000090203D4DEF8C4100B0401E05EF8283CF0
:101AC00043F60C32190FC0F6010202EB810102EE5F
:101AD00010CA91ED001AB8EE422AB8EE411A9FEDF5
:101AE000303A81EE022A01EE105A20EE030AB8EED7
:101AF000411A30EE010AB7EE001A30EE011ADEF894
:101B0000001021EE020AC90301D4002211E0DEF820
:101B10001410B7EE002AC1F3462101EE101AB8EEF8
:101B2000411A31EE021A80EE011ABCEEC11A11EE12
:101B3000102A0260DEF80010890301D4002211E0AF
:101B4000DEF81410B7EE002AC1F3064101EE101AB8
:101B5000B8EE411A31EE021A80EE011ABCEEC11A3B
:101B600011EE102A4260DEF80010490302D4002171
:101B70008160B0BDDEF81410B7EE002AC1F3066133
:101B800001EE101AB8EE411A31EE021A80EE010A87
:101B9000BCEEC00A10EE101A8160B0BD0024744B78
:101BA0000000003910B584B002460020D2F17F0356
:101BB00070EB01032BDA40F2FF739B1A70EB010309
:101BC000C0F2928040F2FF139B1A4FF000038B414A
:101BD000C0F2B78082F080030B4300F08E8182F464
:101BE0008072114340F0698240F60040C4F2026006
:101BF000D0F8E810C1F38111DFE811F00400A8016A
:101C00006E02780204B0BDE8104000F06DBD013AEC
:101C100061F10001D2F13F0370EB0101C0F04D8290
:101C2000DFE812F0400007014B021F014B024B029C
:101C30004B0255014B024B024B024B024B024B0233
:101C40004B02CE004B024B024B024B024B024B02AB
:101C50004B024B024B024B024B024B024B024B021C
:101C60004B0236014B024B024B024B024B024B0222
:101C70004B024B024B024B024B024B024B024B02FC
:101C80004B024B024B024B024B024B024B024B02EC
:101C90004B024B024B024B024B024B024B024B02DC
:101CA0004B02E80040F60044C4F20264D4F8E000BD
:101CB00000F00301012900F04981002940F0A681CC
:101CC00000F032FD216A44F22C0201F00F01C0F64F
:101CD0000102515CC84040F67841C2F20001086040
:101CE000216AC1F3022129E141F6FF739B1A4FF0EB
:101CF00000038B4146DB82F400630B4300F02B8131
:101D000082F48052114340F0D88140F60041C4F281
:101D10000261D1F8E4000A6800F40060520502D5BF
:101D2000002800F0D381096800281CBF41F2002080
:101D3000C0F27A0001F48061002908BF084604B0AF
:101D400010BD82F400730B4300F0278182F480629F
:101D5000114340F0B28140F60044C4F20264D4F86A
:101D6000E00010F4402100F0D680D4F8F000B1F586
:101D7000802F40F0918110F0006000F08D81D4F848
:101D8000F0001FE182F480430B4300F0238182F4D2
:101D90000052114340F0918140F60041C4F20261CB
:101DA000D1F8E400C0F34212042A00F25C814BF641
:101DB0008030DFE812F020014E01520182014C0117
:101DC00040F60044C4F20264D4F8E00000F440712C
:101DD000B1F5807F00F0BA80002900F09C80206877
:101DE000B1F5007F03D110F4806040F06F81D4F82A
:101DF000F000CCE040F60044C4F20264D4F8E00005
:101E000000F44060B0F5806F00F0A080002800F082
:101E100082802168B0F5006F03D111F4806140F039
:101E200055812168B0F5406F4FF0000000F02B8124
:101E300043E140F60044C4F20264D4F8E00000F04C
:101E40000C01042900F08280002964D02068082950
:101E500003D110F4806040F03981D4F8F0000C29EF
:101E60005EE140F60044C4F20264D4F8E00000F001
:101E7000300110296AD000294DD02068202903D1D3
:101E800010F4806040F02281D4F8F000302947E15E
:101E900040F60044C4F20264D4F8E80000F0070001
:101EA000012853D0002840F0BB8000F03DFC216A9F
:101EB00044F22C0201F00F01C0F60102515CC8404F
:101EC00040F67841C2F200010860616A34E040F6F1
:101ED0000044C4F20264D4F8E00000F0C0014029DC
:101EE00034D0C1B12068802903D110F4806040F063
:101EF000ED80D4F8F000C02912E140F60044C4F2AD
:101F00000264D4F8E00000F44050B0F5805F1DD0CA
:101F1000002840F0AB8000F007FC216A44F22C025C
:101F200001F00F01C0F60102515CC84040F6784153
:101F3000C2F200010860216AC1F3021144F24C02AE
:101F4000C0F60102515CC84004B010BD04B0BDE849
:101F5000104000F0E9BB40F60040C4F20260D0F847
:101F6000E81011F4407100F0C880D0F8F020B1F50D
:101F7000807F02D112F0006222D10268B1F5007FA9
:101F800003D112F4806240F0A180D0F8F00000F09C
:101F900002020020B1F5407FC6E040F60040C4F2E6
:101FA0000260D0F8E81011F4406128D0D0F8F02099
:101FB000B1F5806F40F0838012F0006200F07F8006
:101FC000D0F8F000C0004FF0FA0058BF4FF4FA40CC
:101FD00004B010BD40F60041C4F20261D1F8E40043
:101FE000C0F30222042A3ED84BF68030DFE802F02C
:101FF000033135652F0001A8FFF758FC30E0016878
:1020000089065EBF002004B010BD7CE02068022974
:1020100002D110F4806059D1D4F8F00003297FE098
:102020002168022802D111F480614FD1D4F8F01058
:10203000032806D111F002011EBF4FF4004004B086
:1020400010BD216804284FF000001CD035E008685E
:1020500043E001A8FFF7E8FC02E001A8FFF768FBF6
:10206000019804B010BD002004B010BD2168B0F587
:10207000005F02D111F4806128D12168B0F5405F82
:102080004FF0000019D111F0200116D0A068000215
:102090004ED4D4F8F4003BE02068B1F5002F02D113
:1020A00010F4806012D1D4F8F000B1F5402F00F0A8
:1020B00002024FF0000008BF900304B010BD026898
:1020C000B1F5006F28D112F4806225D042F20040B1
:1020D000C0F2F40004B010BD006842F200414005B7
:1020E000C0F2F40101EAE07004B010BD0168890695
:1020F0005EBF002004B010BD05E0016889065EBF28
:10210000002004B010BD8168090203D4D0F8F400A7
:1021100000040EE080680CE0D0F8F000B1F5406FEC
:1021200000F002024FF0000008BF900304B010BDA1
:10213000A068C0F3036043F60C31C0F6010151F80A
:10214000200004B010BD00002DE9F04782B0044625
:10215000006840F6E046C107C4F2026638D1810744
:102160003ED4410744D401074AD4C10650D4810665
:1021700056D441065CD4010662D4C10568D441023C
:102180006FD4810500F17680410500F17C80010566
:1021900006D5B168D4F8802021F440711143B160B4
:1021A00040F628488004C4F2026840F18A80D4F8DE
:1021B00090004FEA7011042900F25982DFE801F023
:1021C00003746D7C7C0004F1080003F06FFD6FE088
:1021D0003168226D21F00301114331608107C0D5C0
:1021E0003168626D21F00C01114331604107BAD5AD
:1021F0003168A26D21F03001114331600107B4D57F
:102200003168E26D21F0C00111433160C106AED5E5
:102210003168226E21F44071114331608106A8D5E6
:10222000B168626E21F007011143B1604106A2D589
:102230003168A26E21F440611143316001069CD5E2
:102240003168E26E21F4405111433160C10596D5E9
:10225000B168226F21F0C0011143B16041027FF5E6
:1022600090AF3168626F21F44041114331608105C4
:102270007FF58AAFB168A26F21F440611143B1606C
:1022800041057FF584AF3168E26F21F440211143AD
:10229000316001053FF57DAF82E7D8F8001041F4C9
:1022A0008031C8F8001007E004F12C0003F0A6FD0F
:1022B000054638B9D4F89000716821F0E001084370
:1022C000706000256078400601D4284627E0D4F8E5
:1022D00094004FEA3021042900F2CB812846DFE840
:1022E00001F003100814140004F1080003F0DEFCF0
:1022F0000BE0D8F8000040F48030C8F80000284611
:1023000003E004F12C0003F079FD074640B9706842
:10231000D4F8941020F4E0600843706000202F4649
:102320006178090613D5D4F8A8104FEA3131052990
:1023300000F2AE81022900F0A681054640B9B068DE
:10234000D4F8A81020F4E0400843B06000203D46D7
:10235000A178C9071ED0D4F88810042900F28C8116
:10236000DFE801F00E030A0E0E00D8F8001041F469
:102370008031C8F8001003E004F12C0003F03EFDAA
:10238000074640B97068D4F8881020F00700084369
:10239000706000202F46A178890720D5D4F88C10D2
:1023A0004FEA3141042900F26A81DFE801F00E03AF
:1023B0000A0E0E00D8F8001041F48031C8F8001061
:1023C00003E004F12C0003F019FD824640B9B06827
:1023D000D4F88C1020F4E0200843B0600020BA4606
:1023E00021684A0301D457466CE056F84C2C5FEA4A
:1023F000427E0BD456F84C2C42F0040246F84C2C8A
:1024000056F84C2C02F004020192019A4FF6004259
:10241000CFF6FF7258F8027049F2047547F00107D1
:1024200048F80270C2F206052F6858F80230DB0740
:102430001ED12B68DB1B022B17D858F80230DB07A4
:1024400016D12B68DB1B022B0FD858F80230DB07A4
:102450000ED12B68DB1B022B07D858F80230DB07A4
:1024600006D12B68DB1B022BDFD90320032720E0DA
:102470000746F0B93069D4F8C0C010F4407010D0ED
:1024800060450BD03069326920F4407042F48032EC
:102490003261326922F4803232613061C00740F02B
:1024A000FA803069574620F4407040EA0C003061F1
:1024B0000020BEF1000F05D456F84C2C22F0040287
:1024C00046F84C2CC9021FD5D4F8A0104FEAB161D0
:1024D000032900F2C380DFE801F00D02070D04F1CB
:1024E000080003F0E3FB05E0D8F8001041F40031E8
:1024F000C8F80010024640B93068D4F8A01020F0A7
:1025000040600843306000203A4621680B031ED526
:10251000D4F8983033B1B3F5005F18BFB3F5805FDE
:1025200040F09F80054660B1CA0413D48A021AD4D1
:102530000A022AD4CA0131D48A0138D449013FD4CD
:102540005BE0706820F4405018437060002015462E
:10255000CA04EBD57268D4F89C3022F400621A43A6
:1025600072608A02E4D5D4F8A420B2F5804F05D178
:10257000D8F8003043F48033C8F80030736823F48F
:1025800080431A4372600A02D4D53268D4F8B4305A
:1025900022F440121A433260CA01CDD53268D4F811
:1025A000B83022F440321A4332608A01C6D5B2688C
:1025B000D4F8BC3022F018021A43B26049011CD58D
:1025C000D4F8B010B1F5401F09D0B1F5001F0AD101
:1025D000D8F8001041F40031C8F8001003E004F10D
:1025E000080003F063FB074640B97068D4F8B010E8
:1025F00020F440100843706000202F46E17809075E
:102600001CD5D4F8841059B1B1F1007F0AD0B1F1D2
:10261000807F21D1D8F8001041F40031C8F80010B3
:1026200068B904E004F1080003F040FB38B93068F1
:10263000D4F8841020F04070084330603846E178C8
:10264000C90606D5B168D4F8AC2021F40041114385
:10265000B16002B0BDE8F0870120F0E7012001225F
:1026600053E701200125CA047FF560AF72E7012519
:1026700028E60120012753E6012001278BE60120EF
:102680004FF0010AACE604F1080003F00FFB54E63A
:10269000012001255CE62A6841F288390327306968
:1026A00080073FF5FEAE2868801A48453FF6DDAE4C
:1026B000306980073FF5F5AE2868801A48453FF637
:1026C000D4AE306980073FF5ECAE2868801A4845E3
:1026D0003FF6CBAE306980073FF5E3AE2868831A3A
:1026E00003204B45DBD9E4E680B500F01DF840F649
:1026F0002041C4F202610A6844F22C0302F00F0286
:10270000C0F601039A5CD04040F67842C2F2000263
:102710001060496844F24C02C1F30211C0F6010294
:10272000515CC84080BD000040F62841C4F20261FF
:1027300051F80C0C10F00C02086815D00C2A04BFDC
:1027400000F0030001280FD051F80C0C9FED350A62
:1027500000F00C00042842F20040C0F2F4001CD04B
:10276000082A18BF002018E051F8200C000204D4F9
:10277000D1F8CC00C0F3033002E051F8200C000F78
:1027800043F60C33C0F6010353F82000002A00EE94
:10279000100A18BF0020B8EE400A0C2A18BF704774
:1027A000D1F800C00A680B68C2F30322086901323D
:1027B00001EE102AC008B8EE411ADB069FED1B2A75
:1027C00000EAE3705FEA8C7258BFB0EE402A82EEF6
:1027D000010A6FF35F3001EE100AC868B8EE411AC3
:1027E0006FF35F2002EE100A9FED0F3AB8EE422A17
:1027F00021EE031AC86831EE021AB7EE002AC0F3C0
:10280000066031EE021A013020EE010A01EE100AD4
:10281000B8EE411A80EE010ABCEEC00A10EE100AB2
:10282000704700BF00000000000000390024744B16
:102830002DE9F047BAB047F6941AC2F2000A9AF8A6
:102840003800DAF8007045F244490128C4F2010961
:102850001CD1A9F1400087424FF0010040F0BE8139
:10286000DAF80410012940F0B981DAF8441000299F
:1028700040F0B4819AF89100B8B900208AF890002D
:1028800002A82830A021FDF72DFF48E09AF891001A
:1028900058B900208AF8900002A82830A021FDF73E
:1028A00021FFA9F14000874239D040F67840C2F2BA
:1028B000000000684EF61B41C9F2CB513A68A0FBFC
:1028C000010122F4803038606FEA1130800004305A
:1028D00000F087813968C90309D53968C90344BF45
:1028E00039685FEAC13102D53968C903EFD40220E3
:1028F0008AF89100DAE90212501EB0FA80F040091D
:102900000001022A08BF2020032922D0022922D058
:1029100001290CBF4FF480684FF000081DE0002033
:102920004FF400510390029101212022CDE90A00C9
:102930004FF48030CDE90411CDE9062102210C903D
:1029400002A8CDE90811FFF7FFFB002848D072B6B6
:10295000FEE740F001004FF4006845F2244247F0E2
:102960002001C4F20102914214BF09F56F71A9F16F
:1029700044010860DAF82000002800F090804AF650
:10298000FC30CBF6FE7039186FF020024FF4804017
:10299000114208BF4FF400500021FFF703F9DAF8A5
:1029A0001810B1F5002F0AD1DAF84410042954D0D8
:1029B000082914BFDAF854204FF480724EE0DAF898
:1029C0002830DAF8202003F17C43B3FA83F300EBDC
:1029D00080005B09DAF844109A404000120244E09B
:1029E00047F68800C2F20000016869B940F6A441C8
:1029F000C4F202610A6842F400120A60096801F434
:102A00000011019101990168013101607020359038
:102A1000022036900D20399041F200000026C4F2C9
:102A2000022035A9CDE93766FEF75EFD47F6640161
:102A30000220C2F20001C0F20A00242281E845000F
:102A400040F22150086247F64C00C2F20000426991
:102A5000012A40F0D0800421EFE04022DAF8203053
:102A600000EB800003FB02F24000B0FBF2F04CF6FA
:102A7000CD42CCF6CC42A0FB0223DA0802EB82075F
:102A80007F4200EB47000127082888BF07EBD302ED
:102A90000429CAF8242004BF5008CAF82400DAF830
:102AA000041041F00200022805D1DAF85000013884
:102AB00018BF012005E0DAF850000138B0FA80F0C4
:102AC00040094302DAF80000DAE90427DAF818507E
:102AD00006684CF21004CFF2050426400660DAF8CE
:102AE000446043EA0803DAF848403343DAF84C60BC
:102AF0002343DAF82C40334323433B43DAF8247072
:102B00002B4343EA0753DAF828703B4307681A431C
:102B10003A431143016041684EF20F029143416014
:102B2000DAF81C10DAF830201143DAF83420436860
:102B3000114319434160816848F20002CFF6F872F0
:102B4000114081600AF154030ECBDAF86470013948
:102B50003943DAF86070194339436FF0FF0387682F
:102B600003EB0222394311438160C1684FF2200216
:102B70001140C160DAE91A12DAF874701143DAF818
:102B8000702041EA0741C76803EB02223943114331
:102B9000A9F140029042C16018D1D9F8000020F09C
:102BA0000100C9F800009AF8380001280ED1DAE9CE
:102BB0000F016FF00F0202EB00100843C9F800008C
:102BC000D9F8000040F00100C9F800000020012100
:102BD000CAF894008AF891108AF890003AB0BDE8DB
:102BE000F087DAF8940040F04000CAF89400012021
:102BF0003AB0BDE8F08707683A4647EA0103002F7C
:102C000008BF0A465A40B6EB124F15D1CFB197F81C
:102C10002020212A7FF41FAF0222027300220261CA
:102C20004FF6FC723A4042F0784242F480324A61F8
:102C300082680160531C0AE00521016172B600BF81
:102C4000FEE70222027300220123026101600022DA
:102C50008360026101220273426812B18A4203D189
:102C600066E04269012A04D10421016172B600BF05
:102C7000FEE7022202734FF6FC724FF0000E002BAB
:102C800001EA0208C0F810E043D0012B01D143460D
:102C90003FE04FF6FF7221EA02065A1E023B032B69
:102CA00002F0030C01D2434619E022F003024FF672
:102CB000FC77434633435B69043A03EA070343EA7C
:102CC00006035B6903EA070343EA06035B6903EA59
:102CD000070343EA06035B6903EA0703EAD1BCF191
:102CE000000F16D043EA060253694FF6FC72BCF19E
:102CF000010F03EA02030CD033435B69BCF1020FFE
:102D000003EA020305D043EA060252694FF6FC7358
:102D100013404FF6FF7221EA02021A4348F078434B
:102D200043F48033536101224160C0F810E0027324
:102D300049F2047747F6A40EC2F20607C2F2000E6B
:102D40004FF0020C40F264083E68C4F202088EF8AC
:102D500054C0D8F80020434642F0060243F8142934
:102D60004FF44002CEF8003000234FF0810CCEE942
:102D70000E23CEE91033CEF848C08EF84C30D8F888
:102D80000020D20723D03A68921B052A17D8D8F81A
:102D90000020D2071BD03A68921B052A0FD8D8F81A
:102DA0000020D20713D03A68921B052A07D8D8F81A
:102DB0000020D2070BD03A68921B052ADFD91020D9
:102DC000CEF8580003208EF8540072B6FEE7D8F80B
:102DD0000020002722F4430202F54002C8F8002038
:102DE0008122C8F82C70C8F83070C8F83470C8F860
:102DF0003870C8F83C70C8F86870CEF850200122CE
:102E0000CEF858708EF854209EF854609EF85420E6
:102E1000022A18BF052E05D14020CEF858008EF8A2
:102E20004C7019E0027B022A01D1012113E091F8D4
:102E3000201089070ED4CEF87400CAF884E0CEF8CA
:102E40005CA058F8600C20F0010048F8600CDAF83B
:102E500000702AE50321016172B600BFFEE70000A1
:102E600047F69410C2F2000090F8901090F891206C
:102E7000012A40F0F280012908BF704770B540F682
:102E8000503CC2F2060C4FF00421C0E91EC10023E1
:102E90002221C0F8943080F89110D0F8842045F6B3
:102EA000C576816CC0F6000646F24505166645F605
:102EB0004D76C0F60005C0F600064029C2E9195655
:102EC000D36604D1016B21B94FF4806406E08029F8
:102ED00002D84FF4006401E04FF4805492F850108F
:102EE000090633D492F84C10012900F0B180012179
:102EF00082F84C10D0F800E092F85410012940F00C
:102F0000A280022382F85430002393651368126F65
:102F10009D6C4FF6FF76B5432C440EF11C019C646A
:102F20004FF4FE44DC60D964C3F850C053F8141F5A
:102F3000002A41F4BA411960196841F4007119601E
:102F400053D0196841F4005119604EE0556F002DBF
:102F50007ED0D0F800E029680EF11C03C1E90243DD
:102F6000C1F810C092F85460D2F800C0012E634638
:102F700053F8144F04D0022E65D114F4803462D07B
:102F800092F85440012C30D192F84C40012C5FD083
:102F9000012482F84C40022482F854402C7300240F
:102FA00094652C611C6844F4BA441C601C6844F4A9
:102FB00000741C60126F1AB11A6842F400521A6051
:102FC0000A6A00245208CFF6010462F3596462F3DE
:102FD0009A644FF6FF7221EA0202CCF800204FF605
:102FE000FC7211402144CCF87C10196841F00101B9
:102FF00019604268416C531E81F0080123F00203FE
:1030000019434FF0010122F0010208BF1121022AE9
:10301000DEF810204FF0040308BF60231A43114369
:10302000CEF81010DEF8001041F40031CEF8001098
:10303000DEF80010C9030BD4DEF8001041F4803133
:10304000CEF8001004E040219165002182F84C1078
:10305000002180F89010BDE87040704710B547F629
:103060002C2EC2F2000E9EF83C1001294FF00201F6
:1030700000F09F808EF83D10DEF8001042F6FF321F
:103080004B68D1F808C0C5F2010291420CDC42F64F
:103090000042C4F20102914212D043F20042C4F253
:1030A000010291420CD00FE043F20042C5F201024E
:1030B000914205D042F60042C5F20102914203D18D
:1030C000426823F4700313434FF68F72CFF6FF521A
:1030D00004681A402243B1F1A04F4A6016DA40F664
:1030E000FF32C4F20002914225DD43F2FF32C4F206
:1030F000010291423BDC40F60042C4F200029142E0
:103100004CD042F60042C4F2010245E040F6FF32E4
:10311000C5F2000291421CDD43F2FF32C5F201020A
:1031200091422FDC40F60042C5F20002914235D0B8
:1031300042F600422EE0B1F1804F2FD040F2004223
:10314000C4F20002914229D040F60002C4F200020B
:1031500022E0B1F1A04F21D040F20042C5F20002BE
:1031600091421BD040F60002C5F2000214E043F287
:103170000042C4F20102914210D044F20002C4F2B3
:10318000010209E044F20002C5F20102914205D0B9
:1031900043F20042C5F20102914204D180682CF052
:1031A000800210438860012000218EF83D008EF8D7
:1031B0003C10084610BD000010B581B047F62C2E1B
:1031C000C2F2000E9EF83D20DEF8001042BB40F235
:1031D0000043C4F20003002299428EF83C201FD124
:1031E00040F69C41C4F202610B6843F002030B609D
:1031F000096801F00201009100994EF60C51CEF2DF
:10320000000109684EF22E41CEF200010A704EF222
:103210000411CEF200014FF480420A60DEF8001083
:1032200002228EF83D200A68B1F1A04F13DA40F671
:10323000FF33C4F20003994221DCB1F1804F41D049
:1032400040F20043C4F2000399423BD040F6000331
:10325000C4F2000334E040F6FF33C5F200039942A4
:103260001EDCB1F1A04F2DD040F20043C5F20003A7
:10327000994227D040F60003C5F2000320E040F653
:103280000043C4F2000399421CD042F60043C4F24A
:103290000103994216D043F20043C4F201030FE048
:1032A00040F60043C5F2000399420BD043F20043BD
:1032B000C5F20103994205D042F60043C5F201036D
:1032C000994204D1DEF8083022F070021A4342F627
:1032D000FF3CB1F1A04FC5F2010C1CDA42F6FF33FE
:1032E000C4F2010399422DDD43F6FF73C4F20103DA
:1032F000994259DD44F20003C4F2010399426AD0B5
:1033000044F20043C4F20103994264D044F600033E
:10331000C4F201035DE0614522DD43F6FF73C5F2AF
:10332000010399424BDD44F20003C5F201039942C7
:1033300051D044F60003C5F2010399424BD044F248
:10334000004344E040F2FF73C4F20003994215DCED
:10335000B1F1804F3FD040F20043C4F2000338E0A7
:1033600040F2FF73C5F20003994212DCB1F1A04FA5
:1033700031D040F20043C5F200032AE040F60003DA
:10338000C4F20003994226D040F60043C4F2000381
:103390001FE040F60003C5F2000399421BD040F63F
:1033A0000043C5F2000314E042F60043C4F20103F7
:1033B000994210D043F20043C4F2010309E042F6FF
:1033C0000043C5F20103994205D043F20043C5F220
:1033D0000103994204D1DEF8103022F440721A43FE
:1033E000DEF8180022F08002DEF80430DEF80C402F
:1033F000104361450860CC628B6216DC43F6FF70B7
:10340000C4F20100814225DD44F20000C4F2010053
:10341000814236D044F20040C4F20100814230D0F3
:1034200044F60000C4F2010029E043F6FF70C5F243
:103430000100814219DD44F20000C5F20100814221
:103440001FD044F60000C5F20100814219D044F2B9
:10345000004012E042F60040C4F20100814210D068
:1034600043F20040C4F2010009E042F60040C5F218
:103470000100814205D043F20040C5F201008142C3
:1034800002D1DEF81400086301224A610869C0070E
:1034900003D0086920F0010008618EF848208EF8FA
:1034A0003E208EF83F208EF840208EF841208EF886
:1034B00042208EF843208EF844208EF845208EF866
:1034C00046208EF847208EF83D2001B010BD000048
:1034D00047F62C20C2F2000090F83D10012918BFD9
:1034E0007047022180F83D100068C168B0F1A04F1C
:1034F00041F00101C16016DA40F6FF31C4F200016B
:10350000884225DD43F2FF31C4F2010188423BDCF1
:1035100040F60041C4F2000188424CD042F600411E
:10352000C4F2010145E040F6FF31C5F200018842D6
:103530001CDD43F2FF31C5F2010188422FDC40F669
:103540000041C5F20001884235D042F600412EE02C
:10355000B0F1804F2FD040F20041C4F20001884208
:1035600029D040F60001C4F2000122E0B0F1A04FE2
:1035700021D040F20041C5F2000188421BD040F644
:103580000001C5F2000114E043F20041C4F2010160
:10359000884210D044F20001C4F2010109E044F273
:1035A0000001C5F20101884205D043F20041C5F295
:1035B000010188420AD181680722C0F2010211404C
:1035C000062918BFB1F5803F00D17047016841F06E
:1035D000010101607047000047F62C2CC2F2000C7C
:1035E0009CF83C1001294FF0020100F0A08080B54A
:1035F0008CF83D10DCF8001088228B68CFF6CE7274
:103600001A408A600368B3F5805F08DA3F2B25DC37
:103610001F2B51DC002B77D0102B75D0BFE01F2261
:10362000C0F2100293423BDCB3F5801F49DAB3F5D8
:10363000805F73D0B3F5005F40F0B180D0E901E363
:10364000C0688A6843EA0E0343EA002022F47F42FE
:1036500010438860886840F480405EE05F2B35DC72
:10366000402B66D0502B40F09A80D0F804E0C06820
:103670000B6A0A6A22F001020A628A6922F0F002E9
:1036800042EA001023F00A0242EA0E0288610A624E
:1036900088684FF68872CFF6CF72104057303CE002
:1036A0003F20C0F21000834224DC2020C0F2100032
:1036B000834229D0302023E0202B25D0302B23D06B
:1036C0006DE018BFB3F1101F1ED068E0602B4BD027
:1036D000702B64D1D0E901E3C0688A6843EA0E0325
:1036E00043EA002022F47F4210438860886840F05B
:1036F000770012E04020C0F21000834204D0702016
:10370000C0F2100083424AD188684FF68872CFF623
:10371000CF721040184340F007008860002101205C
:103720008CF83D0000208CF83C00BDE88040084645
:103730007047D0F804E0C0680B6A0A6A22F0010200
:103740000A628A6922F0F00242EA001023F00A02BB
:1037500042EA0E0288610A6288684FF68872CFF6E4
:10376000CF7210404730D8E7D0F804E0C0680B6A49
:103770000A6A22F010020A628A6922F4704242EA5E
:10378000003023F0A00242EA0E1288610A628868C3
:103790004FF68872CFF6CF7210406730BDE7012137
:1037A000BDE7000047F67821C2F2000191F88400DD
:1037B000012804BF02207047B0B52420C1F888005A
:1037C00008684A6ED0F800C0036823F00103036064
:1037D000836823F060638360CAB18268836844F2BF
:1037E0003C0E5B0FC0F6010E44F244051EF8034088
:1037F000C0F60105C2F34262EB5CE400B4FBF3F3F4
:103800001EF80240AA5CE500B5FBF2F201E00123DC
:103810000122A1F86A30A1F86820C0F800C0202079
:10382000C1F88800002081F88400B0BD47F67821F7
:10383000C2F2000191F88400012804BF0220704701
:10384000B0B52420C1F8880008684A6ED0F800C0DE
:10385000036823F001030360836823F060438360FF
:10386000CAB18268836844F23C0E5B0FC0F6010E59
:1038700044F244051EF80340C0F60105C2F342625B
:10388000EB5CE400B4FBF3F31EF80240AA5CE50035
:10389000B5FBF2F201E001230122A1F86A30A1F8A0
:1038A0006820C0F800C02020C1F88800002081F8FE
:1038B0008400B0BD2DE9F043B7B047F67826C2F2D8
:1038C00000063468D6F8880070B9684600250830CC
:1038D000C02186F88450FCF705FF43F60000C4F2CF
:1038E0000100844200F0C5802420C6F888002068CA
:1038F00020F001002060B06A002855D001070CD4E8
:10390000C10712D1810718D441071ED4C10624D49F
:1039100081062AD4410630D43EE06168B26B21F4BE
:10392000004111436160C107ECD06168F26A21F483
:103930000031114361608107E6D56168326B21F483
:103940008031114361604107E0D56168726B21F4F9
:10395000802111436160C106DAD5A168F26B21F4C0
:1039600080511143A1608106D4D5A168326C21F445
:1039700000511143A16041060ED56168726C21F4BB
:1039800080111143B2F5801F616005D16168B26C8E
:1039900021F4C00111436160000605D56068F16C37
:1039A00020F400200843606006F108030FCBF5699E
:1039B00010432268184346F6F313CCF6FF731A40FF
:1039C000104328432060606844F0805220F4405047
:1039D0000843606042F20040B169C5F20060824273
:1039E0001CBF326A1143A2684FF2FF43C1F2FF13BA
:1039F0001A401143A160E16A726A21F00F0111437C
:103A000044F6FF72C4F200029442E16213DD42F216
:103A1000FF31C4F200618C4221DC45F20000C4F2A7
:103A20000000844237D043F60000C4F20100844213
:103A30002FD101205DE044F20040C4F20000844236
:103A400025D044F60000C4F20000844250D044F671
:103A50000040C4F2000084421BD1082049E042F239
:103A60000041C4F200618C4217D0844211D1002081
:103A700014E04FF0010968460195CDF80090FEF77B
:103A800063FB002800F03B8172B600BFFEE7022016
:103A90002FE000202DE010202BE020200021FEF759
:103AA00081F800285FD0716A43F64C32C0F60102FB
:103AB00032F811107268B0FBF1F002EB420188425B
:103AC000C0F0A3801103884200F29F80010E000223
:103AD00010EB520041F100010023FDF7ACFB4FF663
:103AE0000052A0F54071C0F20F02914239D38CE030
:103AF00004200021FEF756F8B5F5004F1CD190B315
:103B0000716A43F64C32C0F6010232F81110726845
:103B1000B0FBF1F0510801EB4000B0FBF2F04FF6C2
:103B2000EF72A0F1100191426FD84FF6F071C0F31F
:103B300042020840104414E0A8B1716A43F64C32C6
:103B4000C0F6010232F811107268B0FBF1F000EB20
:103B50005200B0FBF2F04FF6EF72A0F1100191426B
:103B600053D83168C8604FF00110B066002130684A
:103B70007167B167426822F490424260826822F025
:103B80002A028260026842F001020260C6F89010C8
:103B900049F20471C2F206010D68016809073FD5B8
:103BA00047F67824C2F2000420464FF400112A465A
:103BB00002F014FB98B300BF206850E8000F2168A2
:103BC00020F0800041E80002DAB1206850E8000FE0
:103BD000216820F0800041E8000292B1206850E89E
:103BE000000F216820F0800041E800024AB12068FF
:103BF00050E8000F216820F0800041E80002002A10
:103C0000DAD103202021882272E04FF00110B06643
:103C10000020C6E91D00012037B0BDE8F083206810
:103C2000006840075BD547F67824C2F200042046BE
:103C30004FF480012A4602F0D1FA00284FD000BF8D
:103C4000206850E8000F216820F4907041E80002DD
:103C5000BAB3206850E8000F216820F4907041E862
:103C6000000272B3206850E8000F216820F49070C1
:103C700041E800022AB3206850E8000F216820F4D0
:103C8000907041E80002002ADAD11AE0206850E87A
:103C9000020F216820F0010041E80202DAB1206839
:103CA00050E8020F216820F0010041E8020292B1C1
:103CB000206850E8020F216820F0010041E802026C
:103CC0004AB1206850E8020F216820F0010041E865
:103CD0000202002ADAD1032020218C2208E02020D1
:103CE000C6F88800C6F88C00002170220020F1661A
:103CF000B150002186F8841037B0BDE8F08340F65B
:103D00008C40C4F2026081694FF0020841F48041A6
:103D100081618169002701F4804132913299016803
:103D2000E42541F001010160006832A900F00100C2
:103D3000329032984FF4C0603290072036900020C5
:103D4000C4F20220CDF8CC80CDE93477C4F202056C
:103D5000FDF7CAFB49F2047147F61C10C2F20601D6
:103D6000C2F200000A6880F854802B682C4643F0A9
:103D7000060344F814391923C0E9004300F108038D
:103D80004FF4806C4FF0080E83E880504FF48003AE
:103D9000C0E90577C761C0E90839C0E90A97C0E9F9
:103DA0000C7780F84C702B68DB0720D00B689B1ACF
:103DB000052B14D82B68DB0719D00B689B1A052B31
:103DC0000DD82B68DB0712D00B689B1A052B06D881
:103DD0002B68DB070BD00B689B1A052BE3D910214E
:103DE0008165032180F8541072B600BFFEE7296890
:103DF00043F2801221F4430101F580012960E96A50
:103E0000C3F6C04201F080210831E962296B1140FC
:103E100001F21941296300216963A9660165816581
:103E2000012180F85410F067C66555F8E00C20F0C9
:103E3000020045F8E00C346856E5000047F6782C9F
:103E4000C2F2000CDCF88820202A40F08E80002886
:103E500008BF7047DCF800309A68120603D59A68EC
:103E600022F080029A6070B50024212249F2047E7B
:103E7000CCF89040CCF88820C2F2060EDEF8002084
:103E8000ACF85410ACF85610DCF80810DCF8105000
:103E9000BCF85660002E40D081F4805129430CBFFD
:103EA00004460146D869000622D4DEF80000801AD4
:103EB0000A2855D81868D869000619D4DEF8000019
:103EC000801A0A284CD81868D869000610D4DEF881
:103ED0000000801A0A2843D81868D869000607D459
:103EE000DEF80000801A0A283AD81868DAE700BF1E
:103EF00011B111F8010B04E034F8020B00216FF34B
:103F00005F209862BCF856000138ACF85600BCF847
:103F100056000028C6D100E01868D86940061FD4B2
:103F2000DEF80000801A0A281AD81868D8694006F6
:103F300016D4DEF80000801A0A2811D81868D8694B
:103F400040060DD4DEF80000801A0A2808D8186848
:103F5000D869400604D4DEF80000801A0A28DBD9AC
:103F60002020CCF88800BDE870407047FEE70000D4
:103F70002DE9F04F95B00FF25C70FCF795FB47F61A
:103F80003030C2F200000121017047F63430C2F235
:103F90000000017047F63830C2F20000017047F6A9
:103FA000103041F23842C2F20000C2F20002026058
:103FB00047F6283046F21812C2F20000C2F20002A0
:103FC000026047F62C3045F63872C2F20000C2F2A9
:103FD0000002026047F6143046F28C52C2F2000032
:103FE000C2F20002026047F6243046F66C52C2F27A
:103FF0000000C2F20002026047F63C30C2F200004C
:10400000017047F61C30C2F20000017047F618300C
:1040100043F67831C2F20000C0F60101016047F6B4
:1040200040304FF27C21C2F20000C0F60A0101606C
:1040300047F620304FF67C2147F6443846F2F82BFD
:10404000C2F20000C0F60A01C2F20008C2F2000B80
:10405000016000270526404600215A460123CDE98C
:10406000006705F059F80646000640F0EE8142F27E
:10407000484042F25042C0F60100C0F60102D0E9C9
:104080000001D2E9002302ACCDE91201CDE91023F1
:1040900010A912AA204604F019FE002800F0D081D1
:1040A000BDF8160080B145F2003504F10C0700247C
:1040B000C2F20605384621462A4604F0E1FCBDF866
:1040C000160001348442F5D3D8F8009002A948467E
:1040D00005F072F8002800F0B38147F6A007C2F29D
:1040E0000007824602AA3846012104F0CFFE0446AA
:1040F000002800F0B88041F23821C2F200010A68BD
:10410000386840F6D45342F08042C2F200030A609D
:1041100000F5C8521F688A60CA6040F6984247F0AE
:104120008041C2F20002196000F5CC511768996015
:10413000D96040F63C7347F08041C2F20003116041
:1041400000F583411F689160D16040F6006247F03E
:104150008041C2F20002196000F58541176899603C
:10416000D96041F2A40347F08041C2F2000311601C
:104170004EF280211F6801449160D16047F0804178
:1041800040F6687219604EF28041C2F200020144AA
:1041900017689960D96041F20C2347F08041C2F260
:1041A0000003116000F540311F6801F5C9419160BD
:1041B000D16047F08041196000F5403141F2D002F2
:1041C00001F5D141C2F20002C3E90211136841F2C4
:1041D000743143F08043136000F5102303F5D1439D
:1041E000C2E9023346F23842C2F200021368C2F258
:1041F000000143F08043136000F5102303F5E14311
:10420000C2E9023346F29832C2F2000213680F6824
:1042100043F08043136000F5182303F54253C2E9CD
:10422000023346F20452C2F20002136847F080479C
:1042300043F08043136000F5102303F53143C2E9D6
:10424000023346F26442C2F2000213688860C8601A
:1042500000F518200F6043F0804100F545501160D3
:10426000C2E9020004E050463021122205F0C8FBEA
:1042700047F69C05C2F2000502AA2846012104F077
:1042800049FD002800F0D480286846F65C5100F50E
:104290009862C2F20001C1E9022241F2DC31C2F2AD
:1042A000000141F21C33C1E9022200F53A61C2F279
:1042B0000003C3E9021141F2483300F59951C2F2FB
:1042C0000003C3E9021141F2C421C2F2000146F623
:1042D0003053C1E9022200F52461C2F20003C3E9B0
:1042E000021140F67C51C2F2000140F6A853C1E928
:1042F000022200F50061C2F2000340F62457C3E930
:10430000021100F50853C2F20007C7E9023346F66E
:104310004C33C2F20003C3E9022240F6E46300F525
:10432000F062C2F2000340F61077C3E9022200F502
:104330003463C2F20007C7E9023340F68C6700F528
:104340000073C2F20007C7E9023346F6CC37C2F267
:104350000007C7E9022241F24C02C2F2000241F218
:104360007807C2E9023300F5D062C2F20007C7E95C
:10437000022240F6F47700F54A52C2F20007C7E97C
:10438000022246F64C42C2F20002C2E9023341F276
:10439000B41300F58062C2F20003C3E9022241F2C5
:1043A000E013C2F20003C3E9021141F25C11C2F250
:1043B0000001C1E9020046F6B041C2F20001C1E9C4
:1043C000022246F20C41C2F2000146F2E032C1E99B
:1043D000020000F5C061C2F20002C2E9021146F219
:1043E000D841C2F2000146F2AC42C1E9020000F13C
:1043F0004001C2F20002C2E9021146F27C5200F111
:104400004401C2F20002C2E9021146F25051C2F266
:104410000001C1E9020041F228410430C2F200016A
:10442000C1E90200484605F0CDF8044208D00CE08E
:1044300050463021132205F0E3FA484605F0C2F851
:10444000D8F8000004F0AAFE0646F2B24AB14FF2D4
:104450004820330AC0F60A00A6A1FCF701F800BF05
:10446000FEE7D8F8000030B940F20010CAF2C010E0
:10447000CBF800005846002104F0C4FDD8F8001025
:1044800047F68C05C2F20005286031B940F20010F1
:10449000CAF2C0105946CBF8000041F60044084665
:1044A0000021C4F2022405F0B3FA296847F690020D
:1044B000C2F200024968106047F69402C2F200029C
:1044C000116047F648014068C2F2000147F69802C1
:1044D000C2F200020B7810601820DA0708BF28200B
:1044E0004027075149F20470C2F20600076800BF76
:1044F0000668F61BC82E0BD80668F61BC82E07D810
:104500000668F61BC82E03D80668F61BC92EEFD323
:104510009F1C0F7028274026002A08BF1827E65145
:10452000076800BF0668F61BC82E0BD80668F61B86
:10453000C82E07D80668F61BC82E03D80668F61BD7
:10454000C92EEFD318274026002A08BF2827E65196
:10455000076800BF0668F61BC82E0BD80668F61B56
:10456000C82E07D80668F61BC82E03D80668F61BA7
:10457000C92EEFD328274026002A08BF1827E65166
:10458000076800BF0668F61BC82E0BD80668F61B26
:10459000C82E07D80668F61BC82E03D80668F61B77
:1045A000C92EEFD318274026002A08BF2827E65136
:1045B000076800BF0668F61BC82E0BD80668F61BF6
:1045C000C82E07D80668F61BC82E03D80668F61B47
:1045D000C92EEFD39F1D0F7028274026002A08BF41
:1045E0001827E651076800BF0668F61BC82E0BD8CF
:1045F0000668F61BC82E07D80668F61BC82E03D817
:104600000668F61BC92EEFD318274026002A08BFDC
:104610002827E651076800BF0668F61BC82E0BD88E
:104620000668F61BC82E07D80668F61BC82E03D8E6
:104630000668F61BC92EEFD328274026002A08BF9C
:104640001827E651076800BF0668F61BC82E0BD86E
:104650000668F61BC82E07D80668F61BC82E03D8B6
:104660000668F61BC92EEFD318274026002A08BF7C
:104670002827E651076800BF0668F61BC82E0BD82E
:104680000668F61BC82E07D80668F61BC82E03D886
:104690000668F61BC92EEFD30A330B702821002AB7
:1046A00008BF182140226250016800BF0268521AF8
:1046B000C82A0BD80268521AC82A07D80268521AA8
:1046C000C82A03D80268521AC92AEFD315B0BDE828
:1046D000F08F00BF0D0A54454D504C415445202DDC
:1046E00020696E697469616C697A6174696F6E0DB5
:1046F0000000000061695F6E6574776F726B5F63C5
:1047000072656174655F616E645F696E69740000F3
:1047100030B4ADF5383D98B00FF62070FBF7C4FF0C
:1047200047F64430C2F200000068002801F07D82A4
:1047300017A8F6EE008A0DF15C0900F5343809F58A
:104740008060109000F50070069009F1100009F1EA
:1047500008010F90A9F110000B9108F108010C90CD
:10476000A8F108000A9109F118010590A9F10400C7
:10477000099108F1180104909FED538A9FED539A17
:10478000A8F1A0009FED52CA9FED52DA9FED52EAC8
:10479000DFED52EADFED529A44F25032089109F50A
:1047A00000710390A8F10400C2F203020DF65C044C
:1047B0000791029047F650311046C2F200014FF4C3
:1047C0003232FCF797F844F25035B0EE480AC2F2A4
:1047D0000305002029582A18090201EE101AD2E90F
:1047E0000137B8EEC11A1B0202EE103A136921EE2E
:1047F000091AD668211880FE010AB8EEC22A3F02C3
:1048000081ED001A1B0203EE107A370201EE103A16
:10481000536922EE092A04EE107AB8EEC33A1B025D
:1048200081ED012AB8EEC44A80FE020A203002EE71
:10483000103A23EE093AB8EEC11A24EE094AB8EE4E
:10484000C22A936980FE030A21EE091AD26980FE0A
:10485000040A22EE092A1B0281ED023A03EE103A05
:1048600080FE010A120281ED052A80FE020A02EE94
:10487000102A81ED041AB0F5323FB8EEC31AB8EE33
:10488000C22A21EE091A22EE092A80FE010A81EDD0
:10489000034A80FE020A81ED061A81ED072A99D1AA
:1048A00010EE100A0DF072FC9FED0F0B53EC102B65
:1048B0000DF0BAFC47F60C31C2F2000100250028C9
:1048C00018BF0120087023E0000000000000003243
:1048D000900E493C11FB7F3FBD3786352CC3163DFA
:1048E00098D37F3F00BF00BF9A9999999999B93F92
:1048F0005046A021FBF7F6FE119D17A80135592D52
:1049000000F534380DF15C090DF65C0401F0788097
:1049100004EBC52148464FF40062FBF7EBFF05EBC3
:1049200085004FEAC00A47F63030C2F20000017835
:1049300047F61430C2F20000D0F800E00846002923
:1049400018BF4FF400709DED170A421E0F9BB0EE8A
:10495000C00A22F0030200BF13ED031A13ED022A6E
:1049600013ED013AB0EEC11A043A93ED004A80FE0D
:10497000010AB0EEC21A80FE010AB0EEC31A80FE30
:10498000010AB0EEC41A80FE010A03F11003E3D15C
:1049900013ED031A13ED022A13ED013AB0EEC11A1A
:1049A00080FE010AB0EEC21A80FE010AB0EEC31A00
:1049B000C0FE01BAF5EE40BAF1EE10FA25D000299A
:1049C00053D0B7EE000A0C9B80EE2B0A024600BFC4
:1049D00093ED041A93ED052A93ED063A93ED074AF9
:1049E00021EE001A22EE002A83ED041A03F11007CB
:1049F00083ED052A043A23EE001A24EE002A83ED03
:104A0000061A83ED072A3B46E2D171B347F62431FB
:104A1000C2F200010968A1F110020C9992ED040A9A
:104A200091ED041A01F1100321EE000A91ED051A2F
:104A300081ED040A043892ED050A21EE000A91ED99
:104A4000061A81ED050A92ED060A21EE000A91EDA3
:104A5000071A81ED060A92ED070A02F1100221EE13
:104A6000000A81ED070A1946D8D147F63C30C2F258
:104A7000000000781195012840F0198210989DEDF2
:104A8000170A9DED181A90ED004A90ED015A9DED20
:104A9000972A9DED983A70EE040A30EE440A31EE02
:104AA000054A31EE451A90ED806A90ED817A30EE3C
:104AB000035A71EE421A70EEC22A74EE433A30EE97
:104AC000430A31EE021A30EE822A34EE033A47F6F8
:104AD0004031C2F2000135EE475A71EE861A72EE8D
:104AE000C62A73EEC73A30EE070A31EE461A32EEA6
:104AF000062A33EE073A09688DED172A40F2046B57
:104B00008DED183A4FF000088DED975A40F2FC56A3
:104B1000CDED981A40F2FC74C0ED002A0025C0EDDE
:104B2000013A002780ED800A002380ED811ACDE94B
:104B30000DAE129109EB030E0EF5816090ED004A67
:104B40009EED025A9EED820A35EE047A0EF5C162A0
:104B5000149009EB0B0092ED003A77EE000A9EEDFF
:104B6000036A50ED7E1A70EE830A9EED831A76EE8C
:104B7000213A90ED022ACEED020A09EB080C73EE01
:104B8000810AD0ED022A169270EEA20A09EB060104
:104B900009EB0402CEED030A0CF5BF6935EE444A79
:104BA00036EE615AD9ED000ADCED7E1ADCED7F2A83
:104BB000D1ED006A9CEDFE6A71EEA04A71EEE00A4A
:104BC00072EEA65A72EEE61ADCEDFF6A13910CF54E
:104BD000FF61D2ED007AD1ED002A34EE86FA75EE4F
:104BE000A6FA3FEE22FA7FEEA7FADDF848A08CED98
:104BF0007EFACCED7FFA159234EE01FA75EE40FAAA
:104C00000AEB03023FEE42FA7FEE83FA92ED03AA2B
:104C1000D2ED02AA2FEE8ABA6FEE2ACA6FEEAAFA76
:104C20003CEE8BBA2FEE0AFA8EED82BA0AEB07023F
:104C300031EEC6BA76EEE7CA3FEECFFA3BEE22BAC5
:104C400070EEACFA6BEE0ADA2FEE8AAA2BEE2ABAD5
:104C50006FEEAAAA3BEE0AAA3DEEEABA37EE407A18
:104C600073EEC13A8EED83FA8CEDFEAA8CEDFFBA9D
:104C7000083337EE437A73EEC23A92ED04AA92ED0E
:104C800005BA27EE0AFA63EE8BAA75EEE65A63EED2
:104C90008A3A27EE0B7A74EEC64A75EEE75A33EE7F
:104CA000C77A74EEE23A3FEE2AFA149A65EECA4ADF
:104CB00063EE8A6A63EE8B3A65EE8B5A82ED00FAF8
:104CC000139A74EEE33A75EEE64A34EE411A35EE85
:104CD000000A00ED7E7AC2ED003AC9ED004A0AEB07
:104CE000050292ED067AD2ED073A31EE021A30EE65
:104CF000430A32EEC62A3CEEE03A32EE612A21EE59
:104D0000074A20EE235A20EE070A21EE231A34EE3A
:104D1000054A30EE410A22EE231A23EE235A23EEEF
:104D2000073A22EE072A169A31EE431A32EE052A86
:104D300082ED004A80ED020A15981037183580ED93
:104D4000001A0BF1080B81ED002AA8F10808083EB3
:104D5000F82B0DF15C09A4F108047FF4EBAE129A74
:104D600009EB0304501904F5816604F5806594EDA0
:104D7000020A96ED001A94ED032A95ED034A30EEEF
:104D8000013A30EE410A32EE041A32EE442A94ED32
:104D9000834A94ED825A04F5C16C04F5C06191ED2B
:104DA000037ADCED001A73EE452A71EE443A33EED5
:104DB000053A31EE041A33EE213A31EE071A30EE9D
:104DC000046A72EE450A134484ED023A84ED031A34
:104DD000174436EE476A70EEA10A30EE440A93EDAE
:104DE000021A93ED033A73EEC73A30EE070A26EE45
:104DF000014A20EE837A20EE811A26EE033A34EE41
:104E0000074A31EE431A84ED824A042384ED831A63
:104E100072EEE12A97ED041A97ED053A32EE052A73
:104E200022EE814A23EE835A23EE811A22EE833A40
:104E300034EE054A31EE431A86ED004A85ED031A39
:104E400032EE612A90ED061A90ED073A20EE014A03
:104E500022EE011A20EE030A22EE035A31EE400A36
:104E600034EE052A81ED030A484640218CED002AE4
:104E700005F010FA47F64030C2F2000007680798C4
:104E800040213A46042305F005FA109840213A469D
:104E9000042305F0FFF9069840213A46042305F063
:104EA000F9F90DF15C0E0EF53438DDE90DAE47F67B
:104EB0001C30C2F200000078012840F0D18047F693
:104EC0001830C2F20000D0F800C04FF6A041CFF673
:104ED000FF7100BF0CEB0102B2F86033B2F86273ED
:104EE00023F0030327F0030759F8035059F807404C
:104EF00009EB030609EB070049F8034049F807509E
:104F00004368776873604760B2F86403B2F8663349
:104F100020F0030023F0030359F8006059F8035010
:104F200009EB000709EB030449F8005049F8036056
:104F300060687B6878606360B2F86803B2F86A33CF
:104F400020F0030023F0030359F8006059F80350E0
:104F500009EB000709EB030449F8005049F8036026
:104F600060687B6878606360B2F86C03B2F86E3397
:104F700020F0030023F0030359F8006059F80350B0
:104F800009EB000709EB030449F8005049F80360F6
:104F900060687B6800297860636061D0B2F8700354
:104FA000B2F8723320F0030023F0030359F80060D5
:104FB00059F8035009EB000709EB030449F80050C6
:104FC00049F8036060687B6878606360B2F87403D6
:104FD000B2F8763320F0030023F0030359F80060A1
:104FE00059F8035009EB000709EB030449F8005096
:104FF00049F8036060687B6878606360B2F87803A2
:10500000B2F87A3320F0030023F0030359F800606C
:1050100059F8035009EB000709EB030449F8005065
:1050200049F8036060687B6878606360B2F87C036D
:10503000B2F87E2320F0030022F0030259F800703A
:1050400059F8026009EB000309EB020549F800601A
:1050500049F8027068685A6858606A60203139E718
:1050600047F63C30C2F20000027847F62030C2F228
:1050700000000068002A18BF4FF480729DED170AE7
:105080009DED181A30EE000A31EE011A571E30EE6F
:10509000014A30EE410A24EE281A09EBC7019DEDC2
:1050A000192A9DED1A3A012F4FF00103A8BF1F46A0
:1050B00088ED001A7B4291ED001A91ED014A31EE24
:1050C000425A34EE036A25EE0C7A25EE0D5A31EE83
:1050D000021A33EE442A66EE0C0A26EE0D6A31EE11
:1050E000071A32EE052A31EE061A32EE602A20EE59
:1050F000280A03F0030321EE281A22EE282A012BA6
:1051000088ED010A88ED021A88ED032A0CD100F11E
:10511000080CA1F10800DDE90A31961E5FE000BF2E
:10512000B00AC93C43EC7F3F11ED021A9DED1B3ADA
:1051300011ED012A9DED1C4A31EE435A1FED086A1C
:105140001FED087A31EE031A32EE043A34EE422AA9
:1051500025EE064A25EE075A31EE041A32EE052AEC
:1051600023EE074A23EE063A9DED1D5A32EE432AFE
:1051700011ED043A31EE041A11ED034A9DED1E6A59
:1051800033EE457A33EE053A34EE065A36EE444AAB
:1051900027EE2E6A27EE297A33EE063A34EE074AD6
:1051A00025EE296A25EE2E5A33EE063A34EE454AAC
:1051B00021EE281A22EE282A00F1180C88ED041A94
:1051C00023EE283A24EE284AA1F1180088ED052A9A
:1051D000099988ED063A089B88ED074A161FBA1A06
:1051E00012F1040F00F2C08000F12405321D0027E7
:1051F000CC1915ED093A94ED026A0CEB070090ED1D
:10520000020A90ED031A15ED082A94ED037A73EE65
:10521000461A72EE072A61EE803A61EE811A33EE89
:10522000063A37EE422A20EE220A22EE811A33EEA7
:10523000233A32EE212A33EE011A32EE400A21EEF1
:10524000281A20EE280ADE1915ED0B5AD4ED040AAF
:1052500086ED021A86ED030A15ED0A4A94ED052A39
:1052600090ED040A35EE603A90ED051A34EE026ACC
:1052700023EE007A35EE205A23EE013A32EE442A2C
:1052800026EE011A35EE074A20EE060A32EE032A10
:1052900034EE011A32EE400A21EE281A20EE280AD6
:1052A00086ED041A043A15ED0D1A94ED062A86EDE2
:1052B000050A203715ED0C0A94ED073A90ED064AE1
:1052C00090ED075A31EE426A30EE037A66EE040A38
:1052D00026EE056A33EE400A31EE021A24EE074A42
:1052E00030EE060A27EE055A31EE201A30EE440A57
:1052F00031EE051A20EE280A21EE281A15ED0F3A94
:1053000086ED070A86ED061A94ED080A15ED0E2AB9
:1053100094ED091A90ED084A90ED095A33EE406A6F
:1053200032EE017A66EE040A26EE056A33EE000AD2
:1053300031EE421A24EE074A27EE055A30EE200AD3
:1053400031EE061A30EE050A31EE441A20EE280A34
:1053500021EE281A203D86ED080A042A86ED091A56
:105360003FF746AF98ED010A47F63030C2F2000031
:10537000017800230846002918BF4FF4007008EB9D
:105380008002536082ED000AC8F80430A9B1DDE95B
:10539000041200BF92ED030A92ED021A20EE000AF9
:1053A00021EE011A0B1D31EE000A0832B1EEC00ADF
:1053B000013881ED010A1946ECD1F5EE40BAF1EE63
:1053C00010FA2AD047F63030C2F2000000780128E7
:1053D00023D14FF6A040CFF6FF700C9900F5B070C6
:1053E00091ED040A91ED051A91ED062A91ED073A27
:1053F00020EE2B0A21EE2B1A81ED040A01F1100296
:1054000081ED051A043022EE2B0A23EE2B1A81EDD2
:10541000060A81ED071A1146E2D147F63430C2F28E
:10542000000041F650310078C2F2060101EB8A0A11
:10543000002800F0F98047F62C3047F62831C2F2F8
:105440000000C2F200010068D1F800C0002209E0AB
:1054500003EB850E08EB87010232782A81ED000A02
:1054600000F0FA8050F82270B0EE480A002F63D0A6
:105470005CF8221009EB810617F003010ED096EDBF
:10548000000A9EED001A012920EE010A0DD1043612
:105490000EF104057B1E042F26D24DE0B0EE480A23
:1054A0003B467546042F1FD246E096ED011A9EED4D
:1054B000012A022921EE021A31EE000A06D108362D
:1054C0000EF10805BB1E042F0ED235E096ED021A30
:1054D0009EED022A0C3621EE021A0EF10C0531EE79
:1054E000000AFB1E042F27D3103EA5F1100100BFB8
:1054F00096ED041A91ED045A96ED052A21EE051A4F
:1055000091ED055A96ED063A31EE000A22EE051AA3
:1055100091ED062A96ED074A31EE000A23EE021AB3
:1055200091ED072A31EE000A24EE021A103631EE10
:10553000000A1031043BDBD10EEB870342F0010778
:1055400008EB820150F8275081ED000AB0EE480ABE
:10555000002D3FF47DAF5CF8271009EB810415F0B6
:1055600003010FD094ED000A93ED001A012920EEFB
:10557000010A0FD10434191D6E1E042DFFF468AF0B
:105580002AE000BFB0EE480A2E461946042DFFF46B
:105590005FAF21E094ED011A93ED012A022921EE7B
:1055A000021A31EE000A07D1083403F10801AE1ED9
:1055B000042DFFF44DAF0FE094ED021A93ED022A93
:1055C0000C3421EE021A03F10C0131EE000AEE1E3A
:1055D000042DFFF43DAF00BF103C103994ED041AC8
:1055E00091ED045A94ED052A21EE051A91ED055A24
:1055F00094ED063A31EE000A22EE051A91ED062AE4
:1056000094ED074A31EE000A23EE021A91ED072AC3
:1056100031EE000A24EE021A103431EE000A103185
:10562000043EDBD114E700BF47F63830C2F2000079
:10563000007800287FF45CA9FFF75EB954454D500F
:105640004C415445202D2072756E202D206D6169CE
:105650006E206C6F6F700D0003996FF0770000BFC4
:1056600091ED280A91ED291A91ED2A2A30EE0E0AC1
:1056700091ED2B3A31EE0E1A32EE0E2A81ED280A08
:1056800081ED291A91ED2C0A81ED2A2A01F1A0025F
:1056900033EE0E1A30EE0E0A91ED2D2A81ED2B1A03
:1056A00081ED2C0A32EE0E2A91ED2F0A91ED301A7F
:1056B00081ED2D2A283030EE0E0A31EE0E1A91EDD2
:1056C000312A91ED2E3A32EE0E2A81ED2F0A81ED2C
:1056D000301A91ED330A91ED341A33EE0E3A81ED22
:1056E000312A30EE0E0A31EE0E1A91ED352A81ED97
:1056F0002E3A81ED330A91ED323A32EE0E2A81EDE7
:10570000341A91ED370A91ED381A33EE0E3A81EDE5
:10571000352A30EE0E0A31EE0E1A91ED392A81ED5E
:10572000323A81ED370A91ED363A32EE0E2A81EDAA
:10573000381A91ED3B0A91ED3C1A33EE0E3A81EDA9
:10574000392A30EE0E0A31EE0E1A91ED3D2A81ED26
:10575000363A81ED3B0A91ED3A3A32EE0E2A81ED6E
:105760003C1A91ED3F0A91ED401A33EE0E3A81ED6D
:105770003D2A30EE0E0A31EE0E1A91ED412A81EDEE
:105780003A3A81ED3F0A91ED3E3A32EE0E2A81ED32
:10579000401A91ED430A91ED441A33EE0E3A81ED31
:1057A000412A30EE0E0A31EE0E1A91ED452A81EDB6
:1057B0003E3A81ED430A91ED423A32EE0E2A81EDF6
:1057C000441A91ED470A91ED481A33EE0E3A81EDF5
:1057D000452A30EE0E0A31EE0E1A91ED492A81ED7E
:1057E000423A81ED470A91ED463A32EE0E2A81EDBA
:1057F000481A91ED4B0A91ED4C1A33EE0E3A81EDB9
:10580000492A30EE0E0A31EE0E1A91ED4D2A81ED45
:10581000463A81ED4B0A91ED4A3A81ED4C1A32EE4F
:105820000E0A91ED4E1A91ED4F2A33EE0E3A81EDAC
:105830004D0A31EE0E0A32EE0E1A81ED4A3A81ED32
:105840004E0A81ED4F1A11467FF40AAF029D6FF0A8
:10585000770400BF95ED010A2E1D0CF0B5F8013458
:1058600085ED010A3546F5D347F63430C2F2000023
:1058700047F6383147F610320078C2F20001C2F222
:1058800000020978D2F80090012805D100293FF4E0
:1058900033A8782104E000BF00293FF42DA800219F
:1058A000002815913FF424A8159A4FF00A0802EB3E
:1058B0004201900009EBC20B09EB81074FEA021E7F
:1058C00009EB0006B0EE480AB0EE481AB0EE482ADE
:1058D000B0EE483A159917A8CDF858A0002400F565
:1058E000343A00BF09EB04050AEB040393ED004AC8
:1058F00095ED005A06EB040C25EE045A0BEB04025E
:1059000035EE033A9CED005A92ED006A25EE045AFA
:10591000381926EE046A35EE022A90ED005A36EE6A
:10592000011A93ED016A25EE044A95ED015A34EE11
:10593000000A25EE064A9CED015A34EE033A25EEA4
:10594000064A92ED015A34EE022A25EE064A90EDFF
:10595000015A34EE011A93ED024A25EE065A95EDEE
:10596000026A35EE000A26EE045A9CED026A35EE14
:10597000033A26EE045A92ED026A35EE022A26EE2A
:10598000045A90ED026A35EE011A93ED035A26EEA1
:10599000044A95ED036A34EE000A26EE054A9CEDB2
:1059A000036A34EE033A26EE054A92ED036A34EEBA
:1059B000022A90ED034A26EE056A24EE054A36EEE9
:1059C000011A34EE000A0439080404F1100489D1E4
:1059D000169AA8F1010802F1100A82ED003AF1448A
:1059E00082ED012AF34482ED021A774482ED030A24
:1059F00076445FEA08417FF465AFFEF77DBF00BFE4
:105A000047F68C00C2F20000016841F65030C2F245
:105A10000600486047F69000C2F20000026847F6B0
:105A20004430C2F20000006847F64834C2F2000475
:105A3000546003F0F7FD012840F0E680D4ED01BA90
:105A40001BEE900A0CF0A2FB47F60C32C2F20002E9
:105A5000147847F648029FED7A0BC2F200021578DF
:105A600053EC102B0CF0E7FB002840F0BB8044F215
:105A7000503249F20076002CC2F20302C2F206064E
:105A800040F0BD80002D49F20475C2F2060569D1CF
:105A90007348B2EE041A72A39FED7B0A0433CDF86B
:105AA0005C080FCB2BEE800A0DF5066C8CE80F001E
:105AB000704870A72BEE811ABBFE400A04378ECFC8
:105AC00088E88F00BFFEC11A10EE100A11EE104ACE
:105AD0000CF05CFB824604EB84000F4640000CF0A7
